{
  "contractName": "KolumnKontract",
  "abi": [
    {
      "inputs": [],
      "name": "kolumnKount",
      "outputs": [
        {
          "internalType": "uint256",
          "name": "",
          "type": "uint256"
        }
      ],
      "stateMutability": "view",
      "type": "function",
      "constant": true
    },
    {
      "inputs": [
        {
          "internalType": "uint256",
          "name": "",
          "type": "uint256"
        }
      ],
      "name": "kolumns",
      "outputs": [
        {
          "internalType": "string",
          "name": "title",
          "type": "string"
        },
        {
          "internalType": "string",
          "name": "content",
          "type": "string"
        }
      ],
      "stateMutability": "view",
      "type": "function",
      "constant": true
    },
    {
      "inputs": [
        {
          "internalType": "string",
          "name": "_title",
          "type": "string"
        },
        {
          "internalType": "string",
          "name": "_content",
          "type": "string"
        }
      ],
      "name": "createKolumn",
      "outputs": [],
      "stateMutability": "nonpayable",
      "type": "function"
    },
    {
      "inputs": [
        {
          "internalType": "uint256",
          "name": "_id",
          "type": "uint256"
        }
      ],
      "name": "viewKolumn",
      "outputs": [
        {
          "internalType": "string",
          "name": "_title",
          "type": "string"
        },
        {
          "internalType": "string",
          "name": "_content",
          "type": "string"
        }
      ],
      "stateMutability": "view",
      "type": "function",
      "constant": true
    }
  ],
  "bytecode": "0x60806040526000805534801561001457600080fd5b506108c2806100246000396000f3fe608060405234801561001057600080fd5b506004361061004c5760003560e01c80630d7d5c4d146100515780633c0a0c7e1461006d578063915a52ee1461008b578063b6a1d48b146100bc575b600080fd5b61006b600480360381019061006691906105ef565b6100ed565b005b61007561016e565b6040516100829190610680565b60405180910390f35b6100a560048036038101906100a091906106c7565b610174565b6040516100b392919061077c565b60405180910390f35b6100d660048036038101906100d191906106c7565b6102be565b6040516100e492919061077c565b60405180910390f35b6000808154809291906100ff906107e2565b9190505550604051806040016040528083815260200182815250600160008054815260200190815260200160002060008201518160000190805190602001906101499291906103f2565b5060208201518160010190805190602001906101669291906103f2565b509050505050565b60005481565b6060806001600084815260200190815260200160002060000180546101989061085a565b80601f01602080910402602001604051908101604052809291908181526020018280546101c49061085a565b80156102115780601f106101e657610100808354040283529160200191610211565b820191906000526020600020905b8154815290600101906020018083116101f457829003601f168201915b505050505091506001600084815260200190815260200160002060010180546102399061085a565b80601f01602080910402602001604051908101604052809291908181526020018280546102659061085a565b80156102b25780601f10610287576101008083540402835291602001916102b2565b820191906000526020600020905b81548152906001019060200180831161029557829003601f168201915b50505050509050915091565b60016020528060005260406000206000915090508060000180546102e19061085a565b80601f016020809104026020016040519081016040528092919081815260200182805461030d9061085a565b801561035a5780601f1061032f5761010080835404028352916020019161035a565b820191906000526020600020905b81548152906001019060200180831161033d57829003601f168201915b50505050509080600101805461036f9061085a565b80601f016020809104026020016040519081016040528092919081815260200182805461039b9061085a565b80156103e85780601f106103bd576101008083540402835291602001916103e8565b820191906000526020600020905b8154815290600101906020018083116103cb57829003601f168201915b5050505050905082565b8280546103fe9061085a565b90600052602060002090601f0160209004810192826104205760008555610467565b82601f1061043957805160ff1916838001178555610467565b82800160010185558215610467579182015b8281111561046657825182559160200191906001019061044b565b5b5090506104749190610478565b5090565b5b80821115610491576000816000905550600101610479565b5090565b6000604051905090565b600080fd5b600080fd5b600080fd5b600080fd5b6000601f19601f8301169050919050565b7f4e487b7100000000000000000000000000000000000000000000000000000000600052604160045260246000fd5b6104fc826104b3565b810181811067ffffffffffffffff8211171561051b5761051a6104c4565b5b80604052505050565b600061052e610495565b905061053a82826104f3565b919050565b600067ffffffffffffffff82111561055a576105596104c4565b5b610563826104b3565b9050602081019050919050565b82818337600083830152505050565b600061059261058d8461053f565b610524565b9050828152602081018484840111156105ae576105ad6104ae565b5b6105b9848285610570565b509392505050565b600082601f8301126105d6576105d56104a9565b5b81356105e684826020860161057f565b91505092915050565b600080604083850312156106065761060561049f565b5b600083013567ffffffffffffffff811115610624576106236104a4565b5b610630858286016105c1565b925050602083013567ffffffffffffffff811115610651576106506104a4565b5b61065d858286016105c1565b9150509250929050565b6000819050919050565b61067a81610667565b82525050565b60006020820190506106956000830184610671565b92915050565b6106a481610667565b81146106af57600080fd5b50565b6000813590506106c18161069b565b92915050565b6000602082840312156106dd576106dc61049f565b5b60006106eb848285016106b2565b91505092915050565b600081519050919050565b600082825260208201905092915050565b60005b8381101561072e578082015181840152602081019050610713565b8381111561073d576000848401525b50505050565b600061074e826106f4565b61075881856106ff565b9350610768818560208601610710565b610771816104b3565b840191505092915050565b600060408201905081810360008301526107968185610743565b905081810360208301526107aa8184610743565b90509392505050565b7f4e487b7100000000000000000000000000000000000000000000000000000000600052601160045260246000fd5b60006107ed82610667565b91507fffffffffffffffffffffffffffffffffffffffffffffffffffffffffffffffff8214156108205761081f6107b3565b5b600182019050919050565b7f4e487b7100000000000000000000000000000000000000000000000000000000600052602260045260246000fd5b6000600282049050600182168061087257607f821691505b602082108114156108865761088561082b565b5b5091905056fea2646970667358221220d8022577182c067ac8554c35f17335206ddab664e94bf562dc3e48772b9c248d64736f6c634300080a0033",
  "immutableReferences": {},
  "source": "// SPDX-License-Identifier: GPL\r\npragma solidity ^0.8.10;\r\n\r\ncontract KolumnKontract {\r\n    //Kolumn Structure\r\n    struct Kolumn {\r\n        string title;\r\n        string content;\r\n    }\r\n\r\n    uint256 public kolumnKount = 0;\r\n    mapping(uint256 => Kolumn) public kolumns;\r\n\r\n    //Add a new Kolumn\r\n    function createKolumn(string memory _title, string memory _content) public {\r\n        kolumnKount++;\r\n        kolumns[kolumnKount] = Kolumn(_title, _content);\r\n    }\r\n\r\n    //View Kolumn by ID\r\n    function viewKolumn(uint256 _id)\r\n        public\r\n        view\r\n        returns (string memory _title, string memory _content)\r\n    {\r\n        _title = kolumns[_id].title;\r\n        _content = kolumns[_id].content;\r\n    }\r\n}\r\n",
  "sourcePath": "D:\\Coding\\kolumn\\src\\contracts\\KolumnKontract.sol",
  "compiler": {
    "name": "solc",
    "version": "0.8.10+commit.fc410830.Emscripten.clang"
  },
  "schemaVersion": "3.4.3",
  "updatedAt": "2021-11-26T19:52:20.235Z",
  "networkType": "ethereum",
  "devdoc": {
    "kind": "dev",
    "methods": {},
    "version": 1
  },
  "userdoc": {
    "kind": "user",
    "methods": {},
    "version": 1
  }
}